:02000000DA28FC
:10000800FF00030E8301A7000A08A8008A017B08E5
:10001800A2007C08A1007D08A0000B128B13880A9F
:100028000630FB001330FC00AD30FD00FD0B1A2834
:10003800FC0B1A28FB0B1A28000000000B168B106B
:100048008B172208FB002108FC002008FD00280867
:0C0058008A00270E8300FF0E7F0E0900B7
:10006400710DF80DF90D7408F8027508031C750F6D
:10007400F902F00DF10D0F30FC00710DF80DF90DC2
:100084007408701C4B28F8027508031C750FF902DC
:100094005028F80775080318750FF907F00DF10DCE
:1000A400FC0B3F2870185C287408F80775080318BF
:0800B400750FF90700000800B8
:0E00BC008312031326088A002508820008001C
:1000CA005E208A110A128000840AA50A0319A60A68
:0800DA00F003031D6528080076
:1000E200831203137408003A031D80287508003A2E
:1000F200031D8028FF30F0007F30F100D9288312E1
:100102000313FD01F901F8017108700403190034A9
:1001120071087506FA00FA1BFD09FB01F51F962806
:10012200F409F509F40A0319F50AF11F9D28F009EB
:10013200F109F00A0319F10A71087504FA00FA1BB1
:10014200B22832207B18C528FD1F0034F009F109BE
:10015200F00A0319F10AF809F909F80A0319F90A68
:100162000034F51FC128F11BBD287108F900700881
:10017200F800F101F001A528F101F001F00A0034C4
:10018200F109F009FB0AA228F80A0319F90A74080E
:100192007802031DA52875087902031DA528F90117
:1001A200F801F00A0319F10AF11FA5280000FF3433
:0201B200080043
:1001B40083120313A301A40101308316860087016F
:1001C4008801831288010B168B170430F400003069
:1001D400F5002308F0002408F10071207808F000ED
:1001E4007908F100700887000630FB001330FC002A
:1001F400AD30FD00FD0BFC28FC0BFC28FB0BFC28A0
:0E02040000000000A30A0319A40AE728082935
:02400E007A3BFB
:00000001FF
