:02000000CC2C06
:0E000600213083120313FD00FD0B07280800B4
:06001400000000000800DE
:10001A000F3083120313FC004730FD00FD0B132839
:0A002A00FC0B132800000000080082
:0E003400F201F101F001F801F30100300800C3
:1000420083120313E91B2728861328288617691BA6
:100052002C2806132D280617E91A31288612322871
:100062008616691A362806123728061659183B28AA
:1000720006153C28061186150A208611E91943281F
:100082008613442886176919482806134928061733
:10009200E9184D2886124E2886166918522806122B
:1000A200532806165918572806155828061186157A
:1000B2000A208611591C5F280D20602803200800A1
:0800C200FA1FF21300300800E0
:1000CA007B15FB1F6F280130F300F201F101F001EB
:0800DA00FA0DF20CFF300800E2
:1000E200FB14FB1F7B28FF30F300F200F100F0004D
:0800F200FA0DF20CFF300800CA
:1000FA00A0017208031D92287108F2007008F1002D
:10010A00F001A0157208031D92287108F200F1018E
:10011A00A011201672080319A0282008F302031D53
:10012A00031CA4280310F21BA828F00DF10DF20DF0
:10013A00F30B9828A4280130FC001A20AB280230BF
:0E014A00FC006520AB280430FC00612008009A
:1001580083120313FA017308031D7A147708031D29
:10016800FA147A080319F828033A0319C3287A18E5
:10017800C028F61FF628F428F21FF428F62872087B
:100188008039FA00F21376088039F6137A060319D3
:10019800D1287A080319F428F62877087302031976
:1001A800D828031CEC28F028760872020319DF28E7
:1001B800031CEC28F028750871020319E628031CB3
:1001C800EC28F028740870020319F8280318F0289E
:1001D800FA080319F628F428FA080319F428F62867
:1001E800031408000310080003140315080008008E
:1001F800831203136708F2007208F100F20A680814
:10020800F000E80A700884000008F0007108840013
:100218007008800071088400000803191429002957
:060228006708F000080069
:10022E000E3083120313FD00FD0B1B290000080086
:10023E0083120313FB017308031D77080319762934
:10024E0072087606FA007708F3077E30031C33290E
:10025E00F302031879293629F302031C7C2972084C
:10026E00F8007108FC007008FD00F817F61703106F
:10027E00F201F101F0011830A0007D1C5029740824
:10028E00F00775080318750FF10776080318760F37
:10029E00F207F20CF10CF00CF80CFC0CFD0C031038
:1002AE00A00B4429F21B6029F80DF00DF10DF20D93
:1002BE00F3037B1B701C7229F81F7229F00A0319B5
:1002CE00F10A0319F20A031D7229F20CF10CF00C5B
:1002DE00F30A03197929FA1FF21300307E2901302F
:1002EE001A207E29023071207E29043065200000FC
:0202FE000800F6
:0E0300008312031344088A0043088200080099
:10030E0083120313FD01F8017008031900347406FB
:10031E00FA00FA1BFD09FB01F41F9729F409F40AF0
:10032E00F01F9B29F009F00A70087404FA00FA1BFA
:10033E00BF297408F802F00D700DF80D7408F80757
:10034E00F00D0630FC00700DF80D74087018F802F0
:10035E00701CF807F00DFC0BAA29701CF8077B180F
:10036E00CD29FD1F0034F009F00AF809F80A00340F
:10037E00F41FCA29F01BC7297008F800F001B8292C
:10038E00F001F00A0034F009FB0AA029F80A7408FB
:10039E007802031DB829F801F00AF01FB829FF34BE
:0203AE00080045
:1003B0008312031359106708E9002120591408001B
:1003C00083120313E501E6015A08E1005B08E2002D
:1003D0005C08E3005D08E4006408FF3A031DFA29A5
:1003E0006308FF3A031DFA296208FF3A031DFA2940
:1003F0006108FF3A031D042A5E08E7002130E80087
:10040000FC200330F000DD2B0130DF00E31F132A56
:1004100080306306F0007008E300DF0A5E088400A5
:100420002D308000DE0A0030F0006406031D222A11
:1004300070086306031D222A70086206031D222A23
:100440006108003A031D2B2A5E08E7002A30E80005
:10045000FC20F001DD2B6408FF3A031D392A6308F4
:10046000003A031D392A6208003A031D392A61083F
:10047000003A031D432A5E08E7002630E800FC200E
:100480005F08F000DD2B0030F4000030F500003094
:10049000F6007F30F7006108F0006208F1006308A1
:1004A000F2006408F300AC20013003180030F000C3
:1004B00070080319762A6108F0006208F1006308E9
:1004C000F2006408F3000030F4000030F500203042
:1004D000F6008230F7001F217008E1007108E20089
:1004E0007208E3007308E400E603432A0030F400D6
:1004F0000030F5002030F6008230F7006108F0008F
:100500006208F1006308F2006408F300AC200130D7
:10051000031C0030F00070080319A92A6108F000DC
:100520006208F1006308F2006408F300CD30F400C3
:10053000CC30F5004C30F6007B30F7001F217008FE
:10054000E1007108E2007208E3007308E400E60AC3
:10055000762AFF306105F800FF306205F9007F3030
:100560006305FA0000306405FB007808F4007908A0
:10057000F5007A08F6007B08F700F40DF50DF60D8E
:10058000F70D741000306105F00000306205F100D5
:1005900000306305F200FF306405F3007008E100ED
:1005A0007108E2007208E3007308E4007408610453
:1005B000F00075086204F10076086304F200770821
:1005C0006404F3007008E1007108E2007208E300BF
:1005D0007308E4007F306402F0007008E00001302E
:1005E000E4007008F4006108F0006208F10063089C
:1005F000F2006408F30074080319052BF00DF10DE7
:10060000F20DF30D7010FF3EFC2A7008E100710836
:10061000E2007208E3007308E4006408303EF00072
:100620005E08840070088000DE0A80306606F000F4
:100630008030013A7002031C262B8030063AF0000D
:10064000803066067002031C262B2D2B5E0884006A
:100650002E308000DE0A0130E5000630E000600840
:10066000003A03198B2BE4016108F0006208F100E5
:100670006308F2006408F300F00DF10DF20DF30DC4
:100680007010F00DF10DF20DF30D70106108F00710
:1006900062080318620FF10763080318630FF2077B
:1006A00064080318640FF3077008E1007108E200A2
:1006B0007208E3007308E4006108F0006208F100CA
:1006C0006308F2006408F300F00DF10DF20DF30D74
:1006D00070107008E1007108E2007208E30073080E
:1006E000E4006408303EF0005E088400700880007A
:1006F000DE0A6508003A031D892BE6036608003A06
:10070000031D892B5E0884002E308000DE0A013034
:10071000E500E0032F2BFF305E0784000008303A2D
:10072000031D942BDE038B2BFF305E078400000833
:100730002E3A031D9C2BDE036608003A0319D92BC1
:100740005E08840065308000DE0A80306606F000B6
:100750008030003A70020318B52B5E0884002D30FB
:100760008000DE0A6608003CE6006608E000803093
:10077000093AF0008030660670020318CB2B0A306D
:10078000F4006008F00087213030F0075E08840034
:1007900070088000DE0A0A30F4006008F00087214B
:1007A0007808F0003030F0075E08840070088000A0
:0C07B000DE0A5E0884008001F0010800F1
:1007BC00831203137008F8007108F000F101F201C4
:1007CC00F301FB01FC019630F300FA017008F10013
:0C07DC007808F000F801F2017D20080010
:1007E80080218A110A128000840AC30A0319C40AE4
:0807F800F003031DF42B0800BF
:10080000122C803083120313DA00252CC030DA005A
:10081000252C9430DA00252CD430DA00252C8030B9
:10082000DA00252C831203135A08013A0319012C0C
:100830005A08023A0319062C5A08033A0319092CDC
:100840005A08043A03190C2C0F2C5B03F0005A08C9
:10085000F0077008DA007008E90021205910DD0166
:100860005D085C078400000803193E2C5D085C07E6
:1008700084000008E700D821DD0A302C5914080054
:10088000831203139F01C0309F042509F0007008F4
:1008900083169F051F179F1783125A08F000F00D4B
:1008A0007010F00D7010F00D701070089F041F1480
:1008B00017211F151F1D5E2C00005A2C1F101E082B
:1008C000F100F00183161E08F0040030F104080066
:1008D000FF3083120313C000FF30C100FF30C2009D
:1008E000FF309F01C0309F042509F0007008831677
:0C08F0009F051F179F1783121F1408009C
:1008FC00831603138611061106128612061386132D
:10090C0083128611061186130613861206120D2009
:10091C000D200D208616061686150A2086110D2030
:10092C0086150A2086110D2086150A2086110D20A9
:10093C00061286150A2086110D2086150A208611AE
:10094C008612861786150A2086110D208613061628
:10095C0086150A208611061286150A2086110D208E
:10096C0086150A208611061686150A2086110D207A
:10097C00061286150A208611861706178616061685
:0C098C0086150A2086110D205914080061
:1009980036258030831603139F00013085008601B9
:1009A80068247E240130E90021200C30E900212050
:1009B800DA014024DE237008D5007108D6007208D9
:1009C800D7007308D8007008DA007108DB007208D5
:1009D800DC007308DD004530DE00E0210130DA007C
:1009E8000130DB004530DC0000240030F00000302E
:1009F800F1002030F2007730F3005508F400560873
:100A0800F5005708F6005808F7001F217008BC00C9
:100A18007108BD007208BE007308BF007008DA00D4
:100A28007108DB007208DC007308DD002C30DE0082
:100A3800E0210230DA000130DB002C30DC00002439
:040A4800DC2C252D50
:100A6C00213084000B3083120313F0002B30C300B1
:080A7C000530C400F42308005A
:080A56004E3461344E340034CB
:020A5E000F3453
:080A600049344E3446340034E1
:040A680030340034F2
:02400E007A3BFB
:00000001FF
