:02000000AF2B24
:0E000600F201F101F001F801F30100300800F1
:100014007B15FB1F14280130F300F201F101F001FC
:08002400FA0DF20CFF30080098
:08002C00FA1FF2130030080076
:10003400FB14FB1F2428FF30F300F200F100F00052
:08004400FA0DF20CFF30080078
:10004C007C185C28FC182D287C197B282628A001FC
:10005C007208031D4D287108F2007008F100780831
:10006C00F000F801A0157208031D4D287108F2006C
:10007C007008F100F001A01120167208031D4D2824
:10008C007108F200F101A015720803196F282008FD
:10009C00F302031D031C73280310F21B5C28F80DDC
:1000AC00F00DF10DF20DF30B532873287B1B701C14
:1000BC007728F81F7728F00A0319F10A0319F20AB6
:1000CC00031D7728F20CF10CF00CF30A03197B28B2
:1000DC0077280130FC0003207E280230FC000A2027
:1000EC007E280430FC0016207E280830FC001A20E4
:0400FC0000000800F8
:06010000FB15FF300800B2
:10010600A0017208031D98287108F2007008F1001A
:10011600F001A0157208031D98287108F200F1017C
:10012600A011201672080319A6282008F302031D41
:10013600031CAA280310F21BAE28F00DF10DF20DD8
:10014600F30B9E28AA280130FC000320B1280230B8
:0E015600FC000A20B1280430FC00162008002E
:100164007B14FB1FBD28F201FA1FFF30F200F100DF
:0A017400F000FA0DF20CFF30080055
:10017E0083120313FB017308031D77080319162955
:10018E0072087606FA007708F3077E30031CD32830
:10019E00F30203181929D628F302031C1C2972082E
:1001AE00F8007108FC007008FD00F817F617031030
:1001BE00F201F101F0011830A0007D1CF028740846
:1001CE00F00775080318750FF10776080318760FF8
:1001DE00F207F20CF10CF00CF80CFC0CFD0C0310F9
:1001EE00A00BE428F21B0029F80DF00DF10DF20D15
:1001FE00F3037B1B701C1229F81F1229F00A031936
:10020E00F10A0319F20A031D1229F20CF10CF00C7B
:10021E00F30A03191929FA1FF21300301E290130AF
:10022E0003201E2902301A201E2904300A20000045
:02023E000800B6
:0E0240008312031323088A002208820008009C
:10024E000E3083120313FD00FD0B2B290000080056
:10025E008312031372087606A000F801F9017308E1
:10026E007702031C52297708FD007308F7007D08FA
:10027E00F3007608FD007208F6007D08F20075089E
:10028E00FD007108F5007D08F1007408FD0070088E
:10029E00F4007D08F00077080319CB297208FA00E4
:1002AE00F217F61777087302F7000319852908303D
:1002BE007702031C7B29F7007408F9007508F40017
:1002CE007608F500F60108307702031C7B29F7004B
:1002DE007408F9007508F400F50108307702031C64
:1002EE007B297A08F200CB29770803198529031098
:1002FE00F60CF50CF40CF90CF70B7E29A01F9229C5
:10030E00F909F409F509F609F90A0319F40A0319AA
:10031E00F50A0319F60A7908F80774080318740F1A
:10032E00F00775080318750FF10776080318760F96
:10033E00F207A01BAB29031CBB29F20CF10CF00C2D
:10034E00F80CF30FBB29C7290318BF29F809F009C8
:10035E00F109F209F80A0319F00A0319F10A03194F
:10036E00F20A8030FA06C3290130FC002620CD297E
:10037E000230FC002620CD290430FC008320CD293C
:10038E000830FC001A20CD290030FC0000000800C7
:10039E0083120313FB01730803190C2A7208FA0067
:1003AE00F2178E30F302F31F0F2AF309F30A083007
:1003BE007302031CF229F300F10D7208F100F20131
:1003CE0008307302031CF229F300F10DF1017308DA
:1003DE00031D0310FA2973080319FA290310F20CEE
:1003EE00F10CF30BF5297B1B711C042A031C042A48
:1003FE00F10A0319F20AF21B1B2AFA1F1E2AF2092E
:10040E00F109F10A0319F20A1E2AF201F1011E2A5C
:10041E007B14FB1F212AF201FA1F212AFF30F20062
:10042E00F100FA0DF20C212A0130FC00232A0030D3
:10043E00FC00232AFF30FC00FC080319272AB220F7
:0A044E007108F0007208F1000800C8
:10045800831203137008F8007108F000F101F2012B
:10046800F301FB01FC019630F300FA01F01F422A68
:10047800F809F009F80A0319F00AFA177008F100E8
:0C0488007808F000F801F2018320080061
:10049400831203137408003A031D652A7508003A91
:1004A400031D652A7608003A031D652A7708003A79
:1004B400031D652AFF30F000FF30F1007F30F200A9
:1004C400FF30F300002B8312031377080319F42A77
:1004D40073080319F72A720876068039FA00F217AE
:1004E400F617A0017208F8007108FC007008FD00FE
:1004F4007408FD027508031C750FFC027608031CC2
:10050400760FF802F801FC01FD01031C902A031088
:10051400F20CF10CF00CF80C0130A0007708F30297
:10052400031C9A2A7E302007F3070318FA2A9F2A0D
:100534007E302007F307031CFD2A1830FA07FD0D4F
:10054400FC0DF80DF00DF10DF20DA00D7408F00284
:100554007508031C750FF1027608031C760FF2026E
:10056400760DA004201CB82A7D14C32A7408F00751
:1005740075080318750FF10776080318760AF20751
:100584007D10FA031F307A05031DA12A7B1B7D1CF5
:10059400EA2A0310F00DF10DF20DA00D7408F0021B
:1005A4007508031C750FF1027608031C760FF2021E
:1005B400760D20040139FD070318FC0A0319F80A13
:1005C400031DEA2AF80CFC0CFD0CF30A0319FA2AA1
:1005D400FA1FF8137808F2007C08F1007D08F00097
:1005E4000030FF2A01308020FF2A02300320FF2A36
:0E05F40004301A20FF2A08300A2000000800F8
:1006020020218A110A128000840AA20A0319A30A6D
:08061200F003031D012B080099
:10061A00831203133908F0003A08F1003B08F2008C
:10062A003C08F3003D08F4003E08F5003F08F600D8
:10063A004008F7002F214108F4004208F50043085A
:10064A00F6004408F7002F214508F4004608F50093
:10065A004708F6004808F7002F210030F400003060
:10066A00F5000030F6008130F7004A22CF212C2213
:04067A00CF21080084
:10067E00831203133908F0003A08F1003B08F20028
:10068E003C08F3000030F4004030F5001C30F6005A
:10069E008130F700BF207008B9007108BA007208E7
:0806AE00BB007308BC0008004A
:1006B600FF3083120313AA00FF30AB00FF30AC00FB
:1006C600FF309F01C0309F042109F0007008831697
:0C06D6009F051F179F1783121F140800B8
:1006E200831203139F01C0309F042109F000700898
:1006F20083169F051F179F1783123908F000F00D0C
:100702007010F00D7010F00D701070089F041F141F
:1007120027211F151F1D8F2B00008B2B1F101E085A
:10072200F100F00183161E08F0040030F104080005
:10073200831203137008F8007108F000F101F2014E
:10074200F301FB01FC019630F300FA017008F1009D
:0C0752007808F000F801F2018320080094
:10075E005A248030831603139F000F3085008601C4
:10076E005B23B901712399237008A4007108A500B9
:10077E007208A6007308A7007008B9007108BA00C5
:10078E007208BB007308BC003F237008A4007108F8
:10079E00A5007208A6007308A7000130B9007123E6
:1007AE0099237008AD007108AE007208AF0073088F
:1007BE00B0007008B9007108BA007208BB00730867
:1007CE00BC003F237008AD007108AE007208AF0088
:1007DE007308B0000230B900712399237008B1007C
:1007EE007108B2007208B3007308B4007008B90043
:1007FE007108BA007208BB007308BC003F23700872
:10080E00B1007108B2007208B3007308B40003306F
:10081E00B900712399237008B5007108B6007208EB
:10082E00B7007308B8007008B9007108BA007208F2
:10083E00BB007308BC003F237008B5007108B600FA
:10084E007208B7007308B8002408B9002508BA006A
:10085E002608BB002708BC002D08BD002E08BE00D0
:10086E002F08BF003008C0003108C1003208C20096
:10087E003308C3003408C4007008C5007108C600F0
:10088E007208C7007308C8000D237008A80071080D
:0A089E00A90070088600B82B532C47
:1008B40021308400013083120313F0005930A20068
:0808C4000430A3000123080029
:0208B2000F3401
:02400E007A3BFB
:00000001FF
