:020000000328D3
:10000600831603138601880101308312A200003093
:10001600A300A401A50180308600013088000630C7
:10002600FB001330FC00AD30FD00FD0B1828FC0B67
:100036001828FB0B1828000000000608013A031DCB
:1000460028280130A4000030A5000608803A031DC8
:100056002E28A401A50100302506031D34280030F2
:100066002406031D3D280608F000F00CF013700866
:10007600860043280608F000F00D70107008860010
:100086000808013A031D4B280130A2000030A300E6
:100096000808803A031D5128A201A3010030230657
:1000A600031D572800302206031D60280808F000AB
:1000B600F00CF0137008880066280808F000F00DB0
:0A00C60070107008880012286728E7
:02400E007A3BFB
:00000001FF
