:02000000E928ED
:10000800FF00030E8301A4000A08A5008A01A00AC4
:100018000319A10A8B128B13833081007D30F40001
:100028000030F5002008F0002108F1008020780851
:10003800F0007908F10000307106031D2528003012
:100048007006031D372806140B30FB002630FC0011
:100058005D30FD00FD0B2E28FC0B2E28FB0B2E28F7
:100068000000000006100B118B168B1725088A005C
:0A007800240E8300FF0E7F0E090026
:10008200710DF80DF90D7408F8027508031C750F4F
:10009200F902F00DF10D0F30FC00710DF80DF90DA4
:1000A2007408701C5A28F8027508031C750FF902AF
:1000B2005F28F80775080318750FF907F00DF10DA1
:1000C200FC0B4E2870186B287408F8077508031883
:0800D200750FF907000008009A
:0E00DA008312031323088A0022088200080004
:1000E8006D208A110A128000840AA20A0319A30A41
:0800F800F003031D7428080049
:10010000831203137408003A031D8F287508003A00
:10011000031D8F28FF30F0007F30F100E8288312A4
:100120000313FD01F901F80171087004031900348B
:1001300071087506FA00FA1BFD09FB01F51FA528D9
:10014000F409F509F40A0319F50AF11FAC28F009BE
:10015000F109F00A0319F10A71087504FA00FA1B93
:10016000C12841207B18D428FD1F0034F009F10973
:10017000F00A0319F10AF809F909F80A0319F90A4A
:100180000034F51FD028F11BCC287108F900700845
:10019000F800F101F001B428F101F001F00A003497
:1001A000F109F009FB0AB128F80A0319F90A7408E1
:1001B0007802031DB42875087902031DB428F901DB
:1001C000F801F00A0319F10AF11FB4280000FF3406
:0201D000080025
:1001D20083120313A001A1018316860183308312C7
:0E01E20081008B168B17063083168100F728DC
:02400E007A3BFB
:00000001FF
