:0200000037299E
:10000600710DF80DF90D7408F8027508031C750FCB
:10001600F902F00DF10D0F30FC00710DF80DF90D20
:100026007408701C1C28F8027508031C750FF90269
:100036002128F80775080318750FF907F00DF10D5B
:10004600FC0B102870182D287408F807750803187B
:08005600750FF9070000080016
:0E005E008312031323088A0022088200080080
:10006C006E283F3083120313F0000030F100C128DA
:10007C000630F0000030F100C1285B30F000003099
:10008C00F100C1284F30F0000030F100C12866307B
:10009C00F0000030F100C1286D30F0000030F100AC
:1000AC00C1287D30F0000030F100C1280730F0008D
:1000BC000030F100C1287F30F0000030F100C12881
:1000CC006F30F0000030F100C128F001F101C128BF
:1000DC008312031300302506031D762800302406F6
:1000EC000319372800302506031D7E28013024060D
:1000FC0003193E2800302506031D862802302406ED
:10010C000319432800302506031D8E2803302406CE
:10011C000319482800302506031D962804302406B0
:10012C0003194D2800302506031D9E280530240692
:10013C000319522800302506031DA6280630240674
:10014C000319572800302506031DAE280730240656
:10015C0003195C2800302506031DB6280830240638
:10016C000319612800302506031DBE28093024061A
:08017C00031966286B28080036
:100184002F208A110A128000840AA20A0319A30AE2
:08019400F003031DC22808005E
:10019C00831203137408003A031DDD287508003A16
:1001AC00031DDD28FF30F0007F30F100362983126B
:1001BC000313FD01F901F8017108700403190034EF
:1001CC0071087506FA00FA1BFD09FB01F51FF328EF
:1001DC00F409F509F40A0319F50AF11FFA28F009D4
:1001EC00F109F00A0319F10A71087504FA00FA1BF7
:1001FC000F2903207B182229FD1F0034F009F10977
:10020C00F00A0319F10AF809F909F80A0319F90AAD
:10021C000034F51F1E29F11B1A297108F90070080A
:10022C00F800F101F0010229F101F001F00A0034AB
:10023C00F109F009FB0AFF28F80A0319F90A7408F6
:10024C007802031D022975087902031D0229F901A0
:10025C00F801F00A0319F10AF11F02290000FF341A
:02026C00080088
:10026E0083120313A001A101063083169F00FF30F5
:10027E008500860188018312851C4A297930860003
:10028E00773088008D2905184F29860188018D2920
:10029E0000302106031D552964302006031D5929FF
:1002AE00A001A1010A30F4000030F5002008F00092
:1002BE002108F100CE207008A4007108A500362098
:1002CE0083120313700886000A30F4000030F50024
:1002DE002008F0002108F100CE207808F0007908FF
:1002EE00F1007008A4007108A500362083120313D4
:1002FE00700888001A30FC00F830FD00FD0B8529CF
:10030E00FC0B85290000A00A0319A10A42298E2997
:02400E007A3BFB
:00000001FF
