:02000000CA290B
:0E000600213083120313FD00FD0B07280800B4
:06001400000000000800DE
:10001A000F3083120313FC004730FD00FD0B132839
:0A002A00FC0B132800000000080082
:1000340083120313F801F9011030FC00710DF80D5F
:10004400F90D7408F8027508031C750FF9020318FA
:1000540032287408F80775080318750FF907031098
:0A006400F00DF10DFC0B2028080040
:10006E0083120313BD1B3D2886133E2886173D1BA6
:10007E004228061343280617BD1A47288612482819
:10008E0086163D1A4C2806124D280616241851289D
:10009E0006155228061186150A208611BD195928F3
:1000AE0086135A2886173D195E2806135F280617F1
:1000BE00BD1863288612642886163D186828061215
:1000CE006928061624186D2806156E280611861541
:1000DE000A208611241C75280D207628032008007E
:1000EE0083120313BB0105303B02031885283B081E
:1000FE003A07840020308000BB0A7A283B083A0772
:10010E0084008001BB033B083A07BC000A30F400B0
:10011E00F5013808F0003908F1001A207808F000CF
:10012E007908F1003030F0073C0884007008800038
:10013E000A30F400F5013808F0003908F1001A20F1
:10014E007008B8007108B90000307106031DB1289F
:10015E0000307006031DB428B628BB038A28080099
:10016E008312031324103808BD003720241408000E
:0E017E008312031323088A002208820008005F
:10018C00D828803083120313AF00EB28C030AF00A7
:10019C00EB289430AF00EB28D430AF00EB28803044
:1001AC00AF00EB28831203132F08013A0319C72859
:1001BC002F08023A0319CC282F08033A0319CF2829
:1001CC002F08043A0319D228D5283003F0002F0841
:1001DC00F0077008AF007008BD0037202410B20182
:1001EC00320831078400000803190429320831074A
:1001FC0084000008B800B720B20AF62824140800BE
:10020C00BF208A110A128000840AA20A0319A30AC9
:08021C00F003031D0629080090
:1002240083120313B401B5012F08B6003008B700D8
:1002340080303006F00080307002031D2329003026
:100244002F02031831290130B4000030B5002F0803
:10025400003CB6003008031C013EB701B702360863
:10026400B8003708B9003108BA0077200630B20068
:100274000030B3003308003C031D42293208003C1F
:1002840003185D2932083107F20001303202F00010
:100294000030031C013E3302F10070083107840072
:1002A4000008F00072088400700880000130B20277
:1002B400031CB3033C293108840020308000340837
:1002C400350403197B29B201B301320831078400D4
:1002D4000008203A031D7229B20A0319B30A6729D8
:1002E4000130B202031CB3033208310784002D30FD
:0402F400800008007E
:1002F8008316031386110611061286120613861337
:1003080083128611061186130613861206120D2013
:100318000D200D208616061686150A2086110D203A
:1003280086150A2086110D2086150A2086110D20B3
:10033800061286150A2086110D2086150A208611B8
:100348008612861786150A2086110D208613061632
:1003580086150A208611061286150A2086110D2098
:1003680086150A208611061686150A2086110D2084
:10037800061286150A20861186170617861606168F
:0C03880086150A2086110D2024140800A0
:10039400FF3083160313870086017C210130BD00E2
:1003A40037200C30BD0037200708A000A101200829
:1003B400F0002108F100F00DF10D70107008A0009C
:1003C4007108A1007008AF007108B0002530B100B9
:1003D40012210130AF000130B0002530B100C62039
:0403E400D629F329FA
:02400E007A3BFB
:00000001FF
