:020000000328D3
:100006008316031386010530831286000B30FB002E
:100016002630FC005D30FD00FD0B0F28FC0B0F2881
:10002600FB0B0F2800000000063086000B30FB009B
:100036002630FC005D30FD00FD0B1F28FC0B1F2841
:10004600FB0B1F28000000000A3086000B30FB0067
:100056002630FC005D30FD00FD0B2F28FC0B2F2801
:10006600FB0B2F2800000000093086000B30FB0038
:100076002630FC005D30FD00FD0B3F28FC0B3F28C1
:0C008600FB0B3F28000000000628482863
:02400E007A3BFB
:00000001FF
